:020000040000FA
:1000000083168601850183120310803086008501E6
:100010009C009D01AC00AD019E019F014A201D2066
:1000200016204A2035201D2016200E281C082C04DE
:1000300086001D082D04850008001E1C22201E18A5
:100040002A2008009C0C03181D1503109D0C031892
:100050009E0908009D0D1D1903141D119C0D031808
:10006000322008009E099C0C0800AD0CAC0C031853
:10007000AD1403100800A5308C00000000008C0BAC
:100080003F28080063308D00000000003B208D0BEE
:100090004628080005308E0042208E0B4C280800B0
:02400E00FA3F77
:00000001FF
