:020000040000FA
:1000000083168501860183120310860100300130BA
:1000100058200130982001307820013068200330CA
:1000200088200130482001306820033078200330D8
:100030009820033058200330882068207820013031
:100040008820013068200130782003309820033068
:100050008820682078200130882001306820013015
:10006000782003309820013058200130982001304A
:10007000782001306820033088200130482001308A
:100080006820033078200330982003305820072858
:100090009200920A37308D0006100130B32006140A
:1000A0000130B3208D0B4C28920B4A2800300800F9
:1000B0009200920A20308D0006104F30B3200614B3
:1000C0004F30B3208D0B5C28920B5A28003008006B
:1000D0009200920A2B308D0006101F30B3200614B8
:1000E0001F30B3208D0B6C28920B6A28003008005B
:1000F0009200920A29308D0006102730B320061492
:100100002730B3208D0B7C28920B7A280030080012
:100110009200920A31308D0006100F30B320061481
:100120000F30B3208D0B8C28920B8A2800300800EA
:100130009200920A24308D0006103A30B320061443
:100140003A30B3208D0B9C28920B9A28003008007F
:100150009200920A0C309300CC20930BAC28920BA7
:10016000AA28003008008C00BD208C0BB428703009
:100170008C00BD208C0BB92808000F308E000000C9
:1001800000008E0BC1280800A5308F000000000081
:100190008F0BC8280030080063309000000000007A
:0801A000C420900BD0280800D8
:02400E00FA3F77
:00000001FF
